{
  "contractName": "EnergyMarket",
  "abi": [
    {
      "inputs": [],
      "stateMutability": "nonpayable",
      "type": "constructor"
    },
    {
      "anonymous": false,
      "inputs": [
        {
          "indexed": true,
          "internalType": "address",
          "name": "consumerAddress",
          "type": "address"
        },
        {
          "indexed": false,
          "internalType": "uint256",
          "name": "energyAmount",
          "type": "uint256"
        },
        {
          "indexed": false,
          "internalType": "uint256",
          "name": "totalCost",
          "type": "uint256"
        }
      ],
      "name": "EnergyPurchaseCompleted",
      "type": "event"
    },
    {
      "anonymous": false,
      "inputs": [
        {
          "indexed": true,
          "internalType": "address",
          "name": "consumer",
          "type": "address"
        },
        {
          "indexed": true,
          "internalType": "address",
          "name": "provider",
          "type": "address"
        },
        {
          "indexed": false,
          "internalType": "uint256",
          "name": "energyAmount",
          "type": "uint256"
        },
        {
          "indexed": false,
          "internalType": "uint256",
          "name": "totalCost",
          "type": "uint256"
        }
      ],
      "name": "EnergyPurchased",
      "type": "event"
    },
    {
      "anonymous": false,
      "inputs": [
        {
          "indexed": true,
          "internalType": "address",
          "name": "provider",
          "type": "address"
        },
        {
          "indexed": false,
          "internalType": "string",
          "name": "email",
          "type": "string"
        },
        {
          "indexed": false,
          "internalType": "string",
          "name": "location",
          "type": "string"
        },
        {
          "indexed": false,
          "internalType": "uint256",
          "name": "energyAvailable",
          "type": "uint256"
        },
        {
          "indexed": false,
          "internalType": "uint256",
          "name": "pricePerUnit",
          "type": "uint256"
        }
      ],
      "name": "ProviderRegistered",
      "type": "event"
    },
    {
      "anonymous": false,
      "inputs": [
        {
          "indexed": true,
          "internalType": "address",
          "name": "provider",
          "type": "address"
        },
        {
          "indexed": false,
          "internalType": "uint256",
          "name": "energyAvailable",
          "type": "uint256"
        },
        {
          "indexed": false,
          "internalType": "uint256",
          "name": "pricePerUnit",
          "type": "uint256"
        }
      ],
      "name": "ProviderUpdated",
      "type": "event"
    },
    {
      "inputs": [
        {
          "internalType": "address",
          "name": "",
          "type": "address"
        }
      ],
      "name": "consumerBalances",
      "outputs": [
        {
          "internalType": "uint256",
          "name": "",
          "type": "uint256"
        }
      ],
      "stateMutability": "view",
      "type": "function",
      "constant": true
    },
    {
      "inputs": [],
      "name": "owner",
      "outputs": [
        {
          "internalType": "address",
          "name": "",
          "type": "address"
        }
      ],
      "stateMutability": "view",
      "type": "function",
      "constant": true
    },
    {
      "inputs": [
        {
          "internalType": "uint256",
          "name": "",
          "type": "uint256"
        }
      ],
      "name": "providerList",
      "outputs": [
        {
          "internalType": "address",
          "name": "",
          "type": "address"
        }
      ],
      "stateMutability": "view",
      "type": "function",
      "constant": true
    },
    {
      "inputs": [
        {
          "internalType": "address",
          "name": "",
          "type": "address"
        }
      ],
      "name": "providers",
      "outputs": [
        {
          "internalType": "string",
          "name": "email",
          "type": "string"
        },
        {
          "internalType": "string",
          "name": "location",
          "type": "string"
        },
        {
          "internalType": "uint256",
          "name": "energyAvailable",
          "type": "uint256"
        },
        {
          "internalType": "uint256",
          "name": "pricePerUnit",
          "type": "uint256"
        },
        {
          "internalType": "bool",
          "name": "registered",
          "type": "bool"
        }
      ],
      "stateMutability": "view",
      "type": "function",
      "constant": true
    },
    {
      "inputs": [
        {
          "internalType": "string",
          "name": "email",
          "type": "string"
        },
        {
          "internalType": "string",
          "name": "location",
          "type": "string"
        },
        {
          "internalType": "uint256",
          "name": "energyAvailable",
          "type": "uint256"
        },
        {
          "internalType": "uint256",
          "name": "pricePerUnit",
          "type": "uint256"
        }
      ],
      "name": "registerProvider",
      "outputs": [],
      "stateMutability": "nonpayable",
      "type": "function"
    },
    {
      "inputs": [
        {
          "internalType": "string",
          "name": "email",
          "type": "string"
        }
      ],
      "name": "registerConsumer",
      "outputs": [],
      "stateMutability": "nonpayable",
      "type": "function"
    },
    {
      "inputs": [
        {
          "internalType": "address",
          "name": "providerAddress",
          "type": "address"
        }
      ],
      "name": "isProviderRegistered",
      "outputs": [
        {
          "internalType": "bool",
          "name": "",
          "type": "bool"
        }
      ],
      "stateMutability": "view",
      "type": "function",
      "constant": true
    },
    {
      "inputs": [
        {
          "internalType": "uint256",
          "name": "energyAvailable",
          "type": "uint256"
        },
        {
          "internalType": "uint256",
          "name": "pricePerUnit",
          "type": "uint256"
        }
      ],
      "name": "updateProvider",
      "outputs": [],
      "stateMutability": "nonpayable",
      "type": "function"
    },
    {
      "inputs": [
        {
          "internalType": "string",
          "name": "email",
          "type": "string"
        }
      ],
      "name": "getConsumerInfoByEmail",
      "outputs": [
        {
          "internalType": "address",
          "name": "consumerAddress",
          "type": "address"
        },
        {
          "internalType": "uint256",
          "name": "energyBalance",
          "type": "uint256"
        },
        {
          "internalType": "uint256",
          "name": "etherBalance",
          "type": "uint256"
        }
      ],
      "stateMutability": "view",
      "type": "function",
      "constant": true
    },
    {
      "inputs": [
        {
          "internalType": "string",
          "name": "consumerEmail",
          "type": "string"
        },
        {
          "internalType": "uint256",
          "name": "energyAmount",
          "type": "uint256"
        },
        {
          "internalType": "address",
          "name": "consumerAddress",
          "type": "address"
        }
      ],
      "name": "buyEnergy",
      "outputs": [],
      "stateMutability": "payable",
      "type": "function",
      "payable": true
    },
    {
      "inputs": [
        {
          "internalType": "uint256",
          "name": "energyAmount",
          "type": "uint256"
        },
        {
          "internalType": "address",
          "name": "consumerAddress",
          "type": "address"
        }
      ],
      "name": "findCheapestProvider",
      "outputs": [
        {
          "internalType": "address",
          "name": "",
          "type": "address"
        }
      ],
      "stateMutability": "view",
      "type": "function",
      "constant": true
    },
    {
      "inputs": [
        {
          "internalType": "address",
          "name": "providerAddress",
          "type": "address"
        }
      ],
      "name": "getProviderInfo",
      "outputs": [
        {
          "internalType": "string",
          "name": "name",
          "type": "string"
        },
        {
          "internalType": "uint256",
          "name": "energyAvailable",
          "type": "uint256"
        },
        {
          "internalType": "uint256",
          "name": "pricePerUnit",
          "type": "uint256"
        }
      ],
      "stateMutability": "view",
      "type": "function",
      "constant": true
    },
    {
      "inputs": [],
      "name": "getAllProviders",
      "outputs": [
        {
          "internalType": "address[]",
          "name": "",
          "type": "address[]"
        }
      ],
      "stateMutability": "view",
      "type": "function",
      "constant": true
    }
  ],
  "bytecode": "0x608060405234801561001057600080fd5b50336000806101000a81548173ffffffffffffffffffffffffffffffffffffffff021916908373ffffffffffffffffffffffffffffffffffffffff160217905550612233806100606000396000f3fe6080604052600436106100c25760003560e01c8063390bfd3c1161007f5780637583902f116100595780637583902f146102815780638da5cb5b146102c05780639420a840146102eb57806395ccfa281461032a576100c2565b8063390bfd3c146101f05780633bb4497c1461022d57806355bd361014610258576100c2565b80630787bc27146100c75780631c218ccc146101085780631ead914e146101315780631faeb27d1461016e57806320aacc75146101975780632ce09583146101d4575b600080fd5b3480156100d357600080fd5b506100ee60048036038101906100e99190611354565b610367565b6040516100ff959493929190611445565b60405180910390f35b34801561011457600080fd5b5061012f600480360381019061012a91906114d2565b6104ba565b005b34801561013d57600080fd5b5061015860048036038101906101539190611354565b61062b565b6040516101659190611512565b60405180910390f35b34801561017a57600080fd5b5061019560048036038101906101909190611662565b610684565b005b3480156101a357600080fd5b506101be60048036038101906101b99190611354565b61089d565b6040516101cb9190611701565b60405180910390f35b6101ee60048036038101906101e9919061171c565b6108b5565b005b3480156101fc57600080fd5b506102176004803603810190610212919061178b565b610c7b565b60405161022491906117c7565b60405180910390f35b34801561023957600080fd5b50610242610cba565b60405161024f91906118a0565b60405180910390f35b34801561026457600080fd5b5061027f600480360381019061027a91906118c2565b610d48565b005b34801561028d57600080fd5b506102a860048036038101906102a39190611354565b610e9a565b6040516102b79392919061190b565b60405180910390f35b3480156102cc57600080fd5b506102d5610f8a565b6040516102e291906117c7565b60405180910390f35b3480156102f757600080fd5b50610312600480360381019061030d91906118c2565b610fae565b60405161032193929190611949565b60405180910390f35b34801561033657600080fd5b50610351600480360381019061034c9190611980565b6110c6565b60405161035e91906117c7565b60405180910390f35b600160205280600052604060002060009150905080600001805461038a906119ef565b80601f01602080910402602001604051908101604052809291908181526020018280546103b6906119ef565b80156104035780601f106103d857610100808354040283529160200191610403565b820191906000526020600020905b8154815290600101906020018083116103e657829003601f168201915b505050505090806001018054610418906119ef565b80601f0160208091040260200160405190810160405280929190818152602001828054610444906119ef565b80156104915780601f1061046657610100808354040283529160200191610491565b820191906000526020600020905b81548152906001019060200180831161047457829003601f168201915b5050505050908060020154908060030154908060040160009054906101000a900460ff16905085565b600160003373ffffffffffffffffffffffffffffffffffffffff1673ffffffffffffffffffffffffffffffffffffffff16815260200190815260200160002060040160009054906101000a900460ff16610549576040517f08c379a000000000000000000000000000000000000000000000000000000000815260040161054090611a92565b60405180910390fd5b81600160003373ffffffffffffffffffffffffffffffffffffffff1673ffffffffffffffffffffffffffffffffffffffff1681526020019081526020016000206002018190555080600160003373ffffffffffffffffffffffffffffffffffffffff1673ffffffffffffffffffffffffffffffffffffffff168152602001908152602001600020600301819055503373ffffffffffffffffffffffffffffffffffffffff167f44909c3b922f4b5e3a703f3933586e811fc1e3ee92f9314edd827ba0e4012f95838360405161061f929190611ab2565b60405180910390a25050565b6000600160008373ffffffffffffffffffffffffffffffffffffffff1673ffffffffffffffffffffffffffffffffffffffff16815260200190815260200160002060040160009054906101000a900460ff169050919050565b600160003373ffffffffffffffffffffffffffffffffffffffff1673ffffffffffffffffffffffffffffffffffffffff16815260200190815260200160002060040160009054906101000a900460ff1615610714576040517f08c379a000000000000000000000000000000000000000000000000000000000815260040161070b90611b27565b60405180910390fd5b6040518060a0016040528085815260200184815260200183815260200182815260200160011515815250600160003373ffffffffffffffffffffffffffffffffffffffff1673ffffffffffffffffffffffffffffffffffffffff16815260200190815260200160002060008201518160000190816107929190611cf3565b5060208201518160010190816107a89190611cf3565b50604082015181600201556060820151816003015560808201518160040160006101000a81548160ff0219169083151502179055509050506004339080600181540180825580915050600190039060005260206000200160009091909190916101000a81548173ffffffffffffffffffffffffffffffffffffffff021916908373ffffffffffffffffffffffffffffffffffffffff1602179055503373ffffffffffffffffffffffffffffffffffffffff167fcfca629d98fe02abd5fb3406cbc2a8089309f8a50645f31144e6c9a1d80464cc8585858560405161088f9493929190611dc5565b60405180910390a250505050565b60026020528060005260406000206000915090505481565b8073ffffffffffffffffffffffffffffffffffffffff163373ffffffffffffffffffffffffffffffffffffffff1614610923576040517f08c379a000000000000000000000000000000000000000000000000000000000815260040161091a90611e64565b60405180910390fd5b600082905060005b6000821115610b6c57600061094083856110c6565b9050600073ffffffffffffffffffffffffffffffffffffffff168173ffffffffffffffffffffffffffffffffffffffff16036109b1576040517f08c379a00000000000000000000000000000000000000000000000000000000081526004016109a890611ef6565b60405180910390fd5b6000600160008373ffffffffffffffffffffffffffffffffffffffff1673ffffffffffffffffffffffffffffffffffffffff168152602001908152602001600020905060008490508482600201541015610a0d57816002015490505b6000826003015482610a1f9190611f45565b90508085610a2d9190611f87565b341015610a6f576040517f08c379a0000000000000000000000000000000000000000000000000000000008152600401610a6690612007565b60405180910390fd5b81836002016000828254610a839190612027565b9250508190555081600260008973ffffffffffffffffffffffffffffffffffffffff1673ffffffffffffffffffffffffffffffffffffffff1681526020019081526020016000206000828254610ad99190611f87565b925050819055508085610aec9190611f87565b94508186610afa9190612027565b95508373ffffffffffffffffffffffffffffffffffffffff168773ffffffffffffffffffffffffffffffffffffffff167f1cbe81348d01d294ac68391c5ba74e03143dc0a19a85ee2dfb5adeca547fc5e28484604051610b5b929190611ab2565b60405180910390a35050505061092b565b82600386604051610b7d9190612097565b908152602001604051809103902060006101000a81548173ffffffffffffffffffffffffffffffffffffffff021916908373ffffffffffffffffffffffffffffffffffffffff16021790555080341115610c24578273ffffffffffffffffffffffffffffffffffffffff166108fc8234610bf79190612027565b9081150290604051600060405180830381858888f19350505050158015610c22573d6000803e3d6000fd5b505b8273ffffffffffffffffffffffffffffffffffffffff167fcb732860420554340c5f0e5695a0ffa090bcf40e4fd46578e92ccb88d14c7d2c8583604051610c6c929190611ab2565b60405180910390a25050505050565b60048181548110610c8b57600080fd5b906000526020600020016000915054906101000a900473ffffffffffffffffffffffffffffffffffffffff1681565b60606004805480602002602001604051908101604052809291908181526020018280548015610d3e57602002820191906000526020600020905b8160009054906101000a900473ffffffffffffffffffffffffffffffffffffffff1673ffffffffffffffffffffffffffffffffffffffff1681526020019060010190808311610cf4575b5050505050905090565b600073ffffffffffffffffffffffffffffffffffffffff16600382604051610d709190612097565b908152602001604051809103902060009054906101000a900473ffffffffffffffffffffffffffffffffffffffff1673ffffffffffffffffffffffffffffffffffffffff1614610df5576040517f08c379a0000000000000000000000000000000000000000000000000000000008152600401610dec906120fa565b60405180910390fd5b33600382604051610e069190612097565b908152602001604051809103902060006101000a81548173ffffffffffffffffffffffffffffffffffffffff021916908373ffffffffffffffffffffffffffffffffffffffff1602179055506000600260003373ffffffffffffffffffffffffffffffffffffffff1673ffffffffffffffffffffffffffffffffffffffff1681526020019081526020016000208190555050565b60606000806000600160008673ffffffffffffffffffffffffffffffffffffffff1673ffffffffffffffffffffffffffffffffffffffff16815260200190815260200160002090508060000181600201548260030154828054610efc906119ef565b80601f0160208091040260200160405190810160405280929190818152602001828054610f28906119ef565b8015610f755780601f10610f4a57610100808354040283529160200191610f75565b820191906000526020600020905b815481529060010190602001808311610f5857829003601f168201915b50505050509250935093509350509193909250565b60008054906101000a900473ffffffffffffffffffffffffffffffffffffffff1681565b6000806000600384604051610fc39190612097565b908152602001604051809103902060009054906101000a900473ffffffffffffffffffffffffffffffffffffffff169250600073ffffffffffffffffffffffffffffffffffffffff168373ffffffffffffffffffffffffffffffffffffffff1603611063576040517f08c379a000000000000000000000000000000000000000000000000000000000815260040161105a90612166565b60405180910390fd5b600260008473ffffffffffffffffffffffffffffffffffffffff1673ffffffffffffffffffffffffffffffffffffffff1681526020019081526020016000205491508273ffffffffffffffffffffffffffffffffffffffff163190509193909250565b60008060007fffffffffffffffffffffffffffffffffffffffffffffffffffffffffffffffff90506000805b60048054905081101561121a5760006004828154811061111557611114612186565b5b9060005260206000200160009054906101000a900473ffffffffffffffffffffffffffffffffffffffff1690506000600160008373ffffffffffffffffffffffffffffffffffffffff1673ffffffffffffffffffffffffffffffffffffffff16815260200190815260200160002090508773ffffffffffffffffffffffffffffffffffffffff168273ffffffffffffffffffffffffffffffffffffffff16036111bf575050611207565b8060040160009054906101000a900460ff1680156111e1575088816002015410155b80156111f05750848160030154105b156112045781955080600301549450600193505b50505b8080611212906121b5565b9150506110f2565b50801580156112c45750600160008673ffffffffffffffffffffffffffffffffffffffff1673ffffffffffffffffffffffffffffffffffffffff16815260200190815260200160002060040160009054906101000a900460ff1680156112c2575085600160008773ffffffffffffffffffffffffffffffffffffffff1673ffffffffffffffffffffffffffffffffffffffff1681526020019081526020016000206002015410155b155b156112d557600093505050506112dc565b8293505050505b92915050565b6000604051905090565b600080fd5b600080fd5b600073ffffffffffffffffffffffffffffffffffffffff82169050919050565b6000611321826112f6565b9050919050565b61133181611316565b811461133c57600080fd5b50565b60008135905061134e81611328565b92915050565b60006020828403121561136a576113696112ec565b5b60006113788482850161133f565b91505092915050565b600081519050919050565b600082825260208201905092915050565b60005b838110156113bb5780820151818401526020810190506113a0565b60008484015250505050565b6000601f19601f8301169050919050565b60006113e382611381565b6113ed818561138c565b93506113fd81856020860161139d565b611406816113c7565b840191505092915050565b6000819050919050565b61142481611411565b82525050565b60008115159050919050565b61143f8161142a565b82525050565b600060a082019050818103600083015261145f81886113d8565b9050818103602083015261147381876113d8565b9050611482604083018661141b565b61148f606083018561141b565b61149c6080830184611436565b9695505050505050565b6114af81611411565b81146114ba57600080fd5b50565b6000813590506114cc816114a6565b92915050565b600080604083850312156114e9576114e86112ec565b5b60006114f7858286016114bd565b9250506020611508858286016114bd565b9150509250929050565b60006020820190506115276000830184611436565b92915050565b600080fd5b600080fd5b7f4e487b7100000000000000000000000000000000000000000000000000000000600052604160045260246000fd5b61156f826113c7565b810181811067ffffffffffffffff8211171561158e5761158d611537565b5b80604052505050565b60006115a16112e2565b90506115ad8282611566565b919050565b600067ffffffffffffffff8211156115cd576115cc611537565b5b6115d6826113c7565b9050602081019050919050565b82818337600083830152505050565b6000611605611600846115b2565b611597565b90508281526020810184848401111561162157611620611532565b5b61162c8482856115e3565b509392505050565b600082601f8301126116495761164861152d565b5b81356116598482602086016115f2565b91505092915050565b6000806000806080858703121561167c5761167b6112ec565b5b600085013567ffffffffffffffff81111561169a576116996112f1565b5b6116a687828801611634565b945050602085013567ffffffffffffffff8111156116c7576116c66112f1565b5b6116d387828801611634565b93505060406116e4878288016114bd565b92505060606116f5878288016114bd565b91505092959194509250565b6000602082019050611716600083018461141b565b92915050565b600080600060608486031215611735576117346112ec565b5b600084013567ffffffffffffffff811115611753576117526112f1565b5b61175f86828701611634565b9350506020611770868287016114bd565b92505060406117818682870161133f565b9150509250925092565b6000602082840312156117a1576117a06112ec565b5b60006117af848285016114bd565b91505092915050565b6117c181611316565b82525050565b60006020820190506117dc60008301846117b8565b92915050565b600081519050919050565b600082825260208201905092915050565b6000819050602082019050919050565b61181781611316565b82525050565b6000611829838361180e565b60208301905092915050565b6000602082019050919050565b600061184d826117e2565b61185781856117ed565b9350611862836117fe565b8060005b8381101561189357815161187a888261181d565b975061188583611835565b925050600181019050611866565b5085935050505092915050565b600060208201905081810360008301526118ba8184611842565b905092915050565b6000602082840312156118d8576118d76112ec565b5b600082013567ffffffffffffffff8111156118f6576118f56112f1565b5b61190284828501611634565b91505092915050565b6000606082019050818103600083015261192581866113d8565b9050611934602083018561141b565b611941604083018461141b565b949350505050565b600060608201905061195e60008301866117b8565b61196b602083018561141b565b611978604083018461141b565b949350505050565b60008060408385031215611997576119966112ec565b5b60006119a5858286016114bd565b92505060206119b68582860161133f565b9150509250929050565b7f4e487b7100000000000000000000000000000000000000000000000000000000600052602260045260246000fd5b60006002820490506001821680611a0757607f821691505b602082108103611a1a57611a196119c0565b5b50919050565b7f4f6e6c7920726567697374657265642070726f7669646572732063616e20706560008201527f72666f726d207468697320616374696f6e000000000000000000000000000000602082015250565b6000611a7c60318361138c565b9150611a8782611a20565b604082019050919050565b60006020820190508181036000830152611aab81611a6f565b9050919050565b6000604082019050611ac7600083018561141b565b611ad4602083018461141b565b9392505050565b7f50726f766964657220616c726561647920726567697374657265640000000000600082015250565b6000611b11601b8361138c565b9150611b1c82611adb565b602082019050919050565b60006020820190508181036000830152611b4081611b04565b9050919050565b60008190508160005260206000209050919050565b60006020601f8301049050919050565b600082821b905092915050565b600060088302611ba97fffffffffffffffffffffffffffffffffffffffffffffffffffffffffffffffff82611b6c565b611bb38683611b6c565b95508019841693508086168417925050509392505050565b6000819050919050565b6000611bf0611beb611be684611411565b611bcb565b611411565b9050919050565b6000819050919050565b611c0a83611bd5565b611c1e611c1682611bf7565b848454611b79565b825550505050565b600090565b611c33611c26565b611c3e818484611c01565b505050565b5b81811015611c6257611c57600082611c2b565b600181019050611c44565b5050565b601f821115611ca757611c7881611b47565b611c8184611b5c565b81016020851015611c90578190505b611ca4611c9c85611b5c565b830182611c43565b50505b505050565b600082821c905092915050565b6000611cca60001984600802611cac565b1980831691505092915050565b6000611ce38383611cb9565b9150826002028217905092915050565b611cfc82611381565b67ffffffffffffffff811115611d1557611d14611537565b5b611d1f82546119ef565b611d2a828285611c66565b600060209050601f831160018114611d5d5760008415611d4b578287015190505b611d558582611cd7565b865550611dbd565b601f198416611d6b86611b47565b60005b82811015611d9357848901518255600182019150602085019450602081019050611d6e565b86831015611db05784890151611dac601f891682611cb9565b8355505b6001600288020188555050505b505050505050565b60006080820190508181036000830152611ddf81876113d8565b90508181036020830152611df381866113d8565b9050611e02604083018561141b565b611e0f606083018461141b565b95945050505050565b7f556e617574686f72697a65640000000000000000000000000000000000000000600082015250565b6000611e4e600c8361138c565b9150611e5982611e18565b602082019050919050565b60006020820190508181036000830152611e7d81611e41565b9050919050565b7f4e6f2070726f766964657220617661696c61626c65207769746820737566666960008201527f6369656e7420656e657267790000000000000000000000000000000000000000602082015250565b6000611ee0602c8361138c565b9150611eeb82611e84565b604082019050919050565b60006020820190508181036000830152611f0f81611ed3565b9050919050565b7f4e487b7100000000000000000000000000000000000000000000000000000000600052601160045260246000fd5b6000611f5082611411565b9150611f5b83611411565b9250828202611f6981611411565b91508282048414831517611f8057611f7f611f16565b5b5092915050565b6000611f9282611411565b9150611f9d83611411565b9250828201905080821115611fb557611fb4611f16565b5b92915050565b7f496e73756666696369656e74207061796d656e74000000000000000000000000600082015250565b6000611ff160148361138c565b9150611ffc82611fbb565b602082019050919050565b6000602082019050818103600083015261202081611fe4565b9050919050565b600061203282611411565b915061203d83611411565b925082820390508181111561205557612054611f16565b5b92915050565b600081905092915050565b600061207182611381565b61207b818561205b565b935061208b81856020860161139d565b80840191505092915050565b60006120a38284612066565b915081905092915050565b7f436f6e73756d657220616c726561647920726567697374657265640000000000600082015250565b60006120e4601b8361138c565b91506120ef826120ae565b602082019050919050565b60006020820190508181036000830152612113816120d7565b9050919050565b7f436f6e73756d6572206e6f7420666f756e640000000000000000000000000000600082015250565b600061215060128361138c565b915061215b8261211a565b602082019050919050565b6000602082019050818103600083015261217f81612143565b9050919050565b7f4e487b7100000000000000000000000000000000000000000000000000000000600052603260045260246000fd5b60006121c082611411565b91507fffffffffffffffffffffffffffffffffffffffffffffffffffffffffffffffff82036121f2576121f1611f16565b5b60018201905091905056fea2646970667358221220aa0fe43d63c9a86af5ebd3536042a9a3eb055f27d550f6b8f7958f88d43b48e864736f6c63430008110033",
  "immutableReferences": {},
  "source": "pragma solidity ^0.8.0;\r\n\r\ncontract EnergyMarket {\r\n    address public owner;\r\n\r\n    struct Provider {\r\n        string email;\r\n        string location;\r\n        uint256 energyAvailable;\r\n        uint256 pricePerUnit;\r\n        bool registered;\r\n    }\r\n\r\n    mapping(address => Provider) public providers;\r\n    mapping(address => uint256) public consumerBalances;\r\n    mapping(string => address) private consumerEmailToAddress;\r\n    address[] public providerList;\r\n\r\n    event ProviderRegistered(\r\n        address indexed provider,\r\n        string email,\r\n        string location,\r\n        uint256 energyAvailable,\r\n        uint256 pricePerUnit\r\n    );\r\n    event EnergyPurchased(\r\n        address indexed consumer,\r\n        address indexed provider,\r\n        uint256 energyAmount,\r\n        uint256 totalCost\r\n    );\r\n    event ProviderUpdated(\r\n        address indexed provider,\r\n        uint256 energyAvailable,\r\n        uint256 pricePerUnit\r\n    );\r\n\r\n    modifier onlyOwner() {\r\n        require(msg.sender == owner, \"Only the owner can perform this action\");\r\n        _;\r\n    }\r\n\r\n    modifier onlyRegisteredProvider() {\r\n        require(\r\n            providers[msg.sender].registered,\r\n            \"Only registered providers can perform this action\"\r\n        );\r\n        _;\r\n    }\r\n\r\n    constructor() {\r\n        owner = msg.sender;\r\n    }\r\n\r\n    function registerProvider(\r\n        string memory email,\r\n        string memory location,\r\n        uint256 energyAvailable,\r\n        uint256 pricePerUnit\r\n    ) public {\r\n        require(!providers[msg.sender].registered, \"Provider already registered\");\r\n        providers[msg.sender] = Provider(\r\n            email,\r\n            location,\r\n            energyAvailable,\r\n            pricePerUnit,\r\n            true\r\n        );\r\n        providerList.push(msg.sender);\r\n        emit ProviderRegistered(\r\n            msg.sender,\r\n            email,\r\n            location,\r\n            energyAvailable,\r\n            pricePerUnit\r\n        );\r\n    }\r\n\r\n    function registerConsumer(string memory email) public {\r\n        require(consumerEmailToAddress[email] == address(0), \"Consumer already registered\");\r\n        consumerEmailToAddress[email] = msg.sender;\r\n        consumerBalances[msg.sender] = 0; // Initialize the energy balance\r\n    }\r\n\r\n    function isProviderRegistered(\r\n        address providerAddress\r\n    ) public view returns (bool) {\r\n        return providers[providerAddress].registered;\r\n    }\r\n\r\n    function updateProvider(\r\n        uint256 energyAvailable,\r\n        uint256 pricePerUnit\r\n    ) public onlyRegisteredProvider {\r\n        providers[msg.sender].energyAvailable = energyAvailable;\r\n        providers[msg.sender].pricePerUnit = pricePerUnit;\r\n        emit ProviderUpdated(msg.sender, energyAvailable, pricePerUnit);\r\n    }\r\n\r\n    function getConsumerInfoByEmail(string memory email) public view returns (address consumerAddress, uint256 energyBalance, uint256 etherBalance) {\r\n        consumerAddress = consumerEmailToAddress[email];\r\n        require(consumerAddress != address(0), \"Consumer not found\");\r\n\r\n        energyBalance = consumerBalances[consumerAddress];\r\n        etherBalance = consumerAddress.balance; // Ether balance in Wei\r\n    }\r\n\r\n    event EnergyPurchaseCompleted(\r\n    address indexed consumerAddress,\r\n    uint256 energyAmount,\r\n    uint256 totalCost\r\n);\r\n\r\n\r\nfunction buyEnergy(\r\n     string memory consumerEmail,\r\n    uint256 energyAmount,\r\n   address consumerAddress\r\n) public payable {\r\n    require(msg.sender == consumerAddress, \"Unauthorized\");\r\n\r\n    uint256 remainingEnergy = energyAmount;\r\n    uint256 totalCost = 0;\r\n\r\n    while (remainingEnergy > 0) {\r\n        address providerAddress = findCheapestProvider(remainingEnergy,consumerAddress);\r\n        require(providerAddress != address(0), \"No provider available with sufficient energy\");\r\n\r\n        Provider storage provider = providers[providerAddress];\r\n        uint256 energyToBuy = remainingEnergy;\r\n\r\n        if (provider.energyAvailable < remainingEnergy) {\r\n            energyToBuy = provider.energyAvailable;\r\n        }\r\n\r\n        uint256 cost = energyToBuy * provider.pricePerUnit;\r\n        require(msg.value >= totalCost + cost, \"Insufficient payment\");\r\n\r\n        provider.energyAvailable -= energyToBuy;\r\n        consumerBalances[consumerAddress] += energyToBuy;\r\n        totalCost += cost;\r\n        remainingEnergy -= energyToBuy;\r\n\r\n        // Emit event for each purchase\r\n        emit EnergyPurchased(\r\n            consumerAddress,\r\n            providerAddress,\r\n            energyToBuy,\r\n            cost\r\n        );\r\n    }\r\n\r\n    // Ensure the consumer's email is mapped to their address\r\n    consumerEmailToAddress[consumerEmail] = consumerAddress;\r\n\r\n    // Send any excess payment back to the consumer\r\n    if (msg.value > totalCost) {\r\n        payable(consumerAddress).transfer(msg.value - totalCost);\r\n    }\r\n\r\n    // Emit event for the overall transaction\r\n    emit EnergyPurchaseCompleted(\r\n        consumerAddress,\r\n        energyAmount,\r\n        totalCost\r\n    );\r\n}\r\nfunction findCheapestProvider(uint256 energyAmount, address consumerAddress) public view returns (address) {\r\n    address cheapestProvider ;\r\n    uint256 lowestPrice = type(uint256).max;\r\n    bool foundCheapestProvider = false;\r\n\r\n    for (uint256 i = 0; i < providerList.length; i++) {\r\n        address providerAddress = providerList[i];\r\n        Provider storage provider = providers[providerAddress];\r\n\r\n        // Skip the consumer's address\r\n        if (providerAddress == consumerAddress) {\r\n            continue;\r\n        }\r\n\r\n        if (\r\n            provider.registered &&\r\n            provider.energyAvailable >= energyAmount &&\r\n            provider.pricePerUnit < lowestPrice\r\n        ) {\r\n            cheapestProvider = providerAddress;\r\n            lowestPrice = provider.pricePerUnit;\r\n            foundCheapestProvider = true;\r\n        }\r\n    }\r\n\r\n    // If no other provider was found and the consumer cannot act as a provider, return address(0)\r\n    if (!foundCheapestProvider && !(providers[consumerAddress].registered && providers[consumerAddress].energyAvailable >= energyAmount)) {\r\n        return address(0); // No suitable provider found\r\n    }\r\n\r\n    return cheapestProvider;\r\n}\r\n\r\nfunction getProviderInfo(\r\n        address providerAddress\r\n    )\r\n        public\r\n        view\r\n        returns (string memory name, uint256 energyAvailable, uint256 pricePerUnit)\r\n    {\r\n        Provider storage provider = providers[providerAddress];\r\n        return (provider.email, provider.energyAvailable, provider.pricePerUnit);\r\n    }\r\n\r\n\r\n    function getAllProviders() public view returns (address[] memory) {\r\n        return providerList;\r\n    }\r\n\r\n}\r\n",
  "sourcePath": "E:\\Personal\\IEEE ESSTHS\\blockchain-voting-system\\express-server\\contracts\\EnergyMarket.sol",
  "compiler": {
    "name": "solc",
    "version": "0.8.17+commit.8df45f5f.Emscripten.clang"
  },
  "schemaVersion": "3.4.16",
  "updatedAt": "2024-06-24T23:42:22.695Z",
  "networkType": "ethereum",
  "devdoc": {
    "kind": "dev",
    "methods": {},
    "version": 1
  },
  "userdoc": {
    "kind": "user",
    "methods": {},
    "version": 1
  }
}